:020000040000FA
:100000000C9462000C948A000C948A000C948A0070
:100010000C948A000C948A000C948A000C948A0038
:100020000C948A000C948A000C948A000C948A0028
:100030000C948A000C948A000C948A000C948A0018
:100040000C94F0030C948A000C94BE030C94980357
:100050000C948A000C948A000C948A000C948A00F8
:100060000C948A000C948A000000000024002700F1
:100070002A0000000000250028002B0000000000DE
:1000800023002600290004040404040404040202DA
:100090000202020203030303030301020408102007
:1000A0004080010204081020010204081020000012
:1000B0000008000201000003040700000000000027
:1000C00000003A0411241FBECFEFD8E0DEBFCDBF41
:1000D00011E0A0E0B1E0E6E6FFE002C005900D927D
:1000E000A635B107D9F722E0A6E5B1E001C01D921F
:1000F000AC3FB207E1F710E0C2E6D0E004C02197C0
:10010000FE010E94AB07C136D107C9F70E946A04FD
:100110000C94B1070C9400000F93CF93DF93FA0176
:10012000DB014C91502F509554235C935081502B00
:100130005083FC0193E0E90148E080E060E050E09A
:100140007881702389F05A95D9F750E0788170232F
:1001500059F05A95D9F750E87881702329F05A95CB
:10016000D9F76A9561F717C077E07A95F1F7000043
:1001700061E0AA0F7881702309F0A1604A9529F403
:10018000A193839548E0981731F050E87881702367
:1001900011F75A95D9F7DF91CF910F910895AF924A
:1001A000BF92CF92DF92EF92FF920F931F93CF9364
:1001B000DF936C017B018B01040F151FEB015E01C6
:1001C000AE18BF08C017D10759F06991D601ED915B
:1001D000FC910190F081E02DC6010995892B79F7FA
:1001E000C501DF91CF911F910F91FF90EF90DF90AC
:1001F000CF90BF90AF900895FC01538D448D252F73
:1002000030E0842F90E0821B930B541710F0CF96B0
:10021000089501970895FC01918D828D981761F0E2
:10022000A28DAE0FBF2FB11D5D968C91928D9F5FF9
:100230009F73928F90E008958FEF9FEF0895FC01D8
:10024000918D828D981731F0828DE80FF11D858D8B
:1002500090E008958FEF9FEF0895FC01918D228D1E
:10026000892F90E0805C9F4F821B91098F739927A3
:1002700008958EE592E00E942D0121E0892B09F47A
:1002800020E0822F089580E090E0892B29F00E94E1
:10029000390181110C9400000895FC01A48DA80F70
:1002A000B92FB11DA35ABF4F2C91848D90E00196B8
:1002B0008F739927848FA689B7892C93A089B189D8
:1002C0008C91837080648C93938D848D981306C079
:1002D0000288F389E02D80818F7D80830895EF92DD
:1002E000FF920F931F93CF93DF93EC0181E0888FF0
:1002F0009B8D8C8D98131AC0E889F989808185FFC0
:1003000015C09FB7F894EE89FF896083E889F98961
:1003100080818370806480839FBF81E090E0DF9163
:10032000CF911F910F91FF90EF900895F62E0B8DB6
:1003300010E00F5F1F4F0F731127E02E8C8D8E1171
:100340000CC00FB607FCFACFE889F989808185FFD8
:10035000F5CFCE010E944D01F1CFEB8DEC0FFD2FBB
:10036000F11DE35AFF4FF0829FB7F8940B8FEA8993
:10037000FB8980818062CFCFCF93DF93EC01888DA2
:100380008823B9F0AA89BB89E889F9898C9185FD10
:1003900003C0808186FD0DC00FB607FCF7CF8C919E
:1003A00085FFF2CF808185FFEDCFCE010E944D0108
:1003B000E9CFDF91CF910895833081F028F4813027
:1003C00099F08230A9F008958730A9F08830C9F0FB
:1003D0008430B1F4809180008F7D03C080918000D3
:1003E0008F7780938000089584B58F7784BD0895BA
:1003F00084B58F7DFBCF8091B0008F778093B00064
:1004000008958091B0008F7DF9CF1F93CF93DF9334
:10041000282F30E0F901E255FF4F8491F901E656AB
:10042000FF4FD491F901EA57FF4FC491CC23A9F0B3
:10043000162F81110E94DC01EC2FF0E0EE0FFF1F60
:10044000EE58FF4FA591B4918FB7F894EC9111112C
:1004500008C0D095DE23DC938FBFDF91CF911F9131
:100460000895DE2BF8CFCF93DF9390E0FC01E656A2
:10047000FF4F24918A579F4FFC0184918823D1F02C
:1004800090E0880F991FFC01E859FF4FA591B491A6
:10049000FC01EE58FF4FC591D491623071F49FB7C3
:1004A000F8943C91822F809583238C93E8812E2BA6
:1004B00028839FBFDF91CF9108958FB7F894EC9177
:1004C0002E2B2C938FBFF6CF0F931F93F901208112
:1004D000202B2083DA012C91202B2C93208140812A
:1004E000202B30E010E00095109550E004231523F8
:1004F000DC015D9148E00083550F40F474E07A958B
:10050000F1F720837AE07A95F1F705C07EE07A95DD
:10051000F1F7000020834A9529F073E07A95F1F70E
:100520000000E9CF6A9529F071E07A95F1F70000B3
:10053000E0CF72E07A95F1F700000000008374E0EC
:100540007A95F1F70000000020831F910F91089524
:1005500020918201309183012130310539F0880FDB
:10056000991FFC01EB5EFE4F80819181880F991FDE
:10057000880F991FFC01EA56FE4F80819181A2816C
:10058000B38180959095A095B0958827B7FD839508
:100590009927AA27BB2708954F925F926F927F9267
:1005A0008F929F92AF92BF92CF92DF92EF92FF9283
:1005B0000F931F93CF93DF93CDB7DEB72B970FB673
:1005C000F894DEBF0FBECDBF3B014A01790190E038
:1005D000FC01E656FF4F54908A579F4FFC018491CF
:1005E00090E0880F991FFC01E859FF4FC590D49007
:1005F000FC01EE58FF4FA590B490FC01E458FF4F6A
:10060000259134914FB6F894052DA501B601CE0180
:1006100009960E948C00182F813081F589859FEF03
:10062000980F9E3FF8F09501A60163E0C3010E9478
:1006300064024FBE812F2B960FB6F894DEBF0FBE1B
:10064000CDBFDF91CF911F910F91FF90EF90DF9081
:10065000CF90BF90AF909F908F907F906F905F9062
:100660004F9008958154823008F060C09501A60132
:100670006AE0C4010E94640212E0DBCF833009F01B
:1006800055C08985803409F051C08A85883008F0CA
:100690004DC098E0F701DE01119601900D929A95F8
:1006A000E1F7813069F4F70184819581907F82952B
:1006B0008F70892B8D8386818E8387818F8312C073
:1006C000823021F5F70184819581907F82958F702A
:1006D000892B8D8386819781907F82958F70892B5E
:1006E0008E831F821886052D9501A60168E0CE0134
:1006F00001960E9464028B858370813099F082306C
:1007000099F0833009F095CF16E093CF843049F308
:10071000833049F3F70186819781907F82958F70AE
:10072000892BCCCF14E085CF15E083CF10E081CFAB
:100730001F920F920FB60F9211242F933F934F9356
:100740005F936F937F938F939F93AF93BF93EF9339
:10075000FF938EE592E00E944D01FF91EF91BF91D2
:10076000AF919F918F917F916F915F914F913F9149
:100770002F910F900FBE0F901F9018951F920F9200
:100780000FB60F9211242F938F939F93EF93FF93A4
:10079000E0916E02F0916F028081E0917402F0911D
:1007A000750282FD1BC09081809177028F5F8F73ED
:1007B00020917802821741F0E0917702F0E0E25A4E
:1007C000FD4F958F80937702FF91EF919F918F91CD
:1007D0002F910F900FBE0F901F9018958081F4CF2E
:1007E0001F920F920FB60F9211242F933F938F9366
:1007F0009F93AF93BF9380915B0190915C01A09117
:100800005D01B0915E0130915A0123E0230F2D3735
:1008100058F50196A11DB11D20935A0180935B01EB
:1008200090935C01A0935D01B0935E0180915601AD
:1008300090915701A0915801B09159010196A11DC5
:10084000B11D8093560190935701A0935801B09326
:100850005901BF91AF919F918F913F912F910F902F
:100860000FBE0F901F90189526E8230F0296A11D2A
:10087000B11DD2CFEEE5F2E01382128288EE93E052
:10088000A0E0B0E084839583A683B78381E391E001
:100890009183808385EC90E09587848784EC90E059
:1008A0009787868780EC90E0918B808B81EC90E03D
:1008B000938B828B82EC90E0958B848B86EC90E01E
:1008C000978B868B118E128E138E148E82E08093FE
:1008D000FB020895789484B5826084BD84B58160FC
:1008E00084BD85B5826085BD85B5816085BD8091FB
:1008F0006E00816080936E00109281008091810073
:10090000826080938100809181008160809381006A
:10091000809180008160809380008091B10084602C
:100920008093B1008091B00081608093B00080918D
:100930007A00846080937A0080917A00826080934C
:100940007A0080917A00816080937A0080917A00A9
:10095000806880937A001092C100E0916E02F0915D
:100960006F0282E08083E0916A02F0916B02108254
:10097000E0916C02F0916D0280E18083109276022A
:10098000E0917202F091730286E08083E091700240
:10099000F0917102808180618083E0917002F0911A
:1009A0007102808188608083E0917002F091710211
:1009B000808180688083E0917002F0917102808173
:1009C0008F7D808361E08DE00E94330282E190E0C0
:1009D00090938B0180938A0183E190E090938D0145
:1009E00080938C0161E082E10E94330260E080919B
:1009F0008A010E94050261E080918C010E9433020D
:100A000061E080918C010E940502E2E8F1E090E053
:100A100080E0CC24CA94DC2C76014FEF5FEFDC0140
:100A2000AA56BE4F30E020E0CD92DD92ED92FD92CD
:100A30002F5F3F4F2C303105B9F711921192538738
:100A40004287C096803C910551F781E090E09093F9
:100A500083018093820181E190E090938F018093E4
:100A60008E0162E00E94330210926B0141E04093DC
:100A7000730162E06093670153E050936F0134E0CB
:100A80003093630125E020935F0196E090937B0112
:100A900087E08093770160936C011092740150930A
:100AA000680140937001309364012093600190933A
:100AB0007C018093780160936D01109275015093D1
:100AC0006901409371013093650120936101909316
:100AD0007D018093790160936E01109276015093AD
:100AE0006A014093720130936601209362019093F2
:100AF0007E0180937A0143E150E06FE371E08EE57F
:100B000092E00E94CF0042E050E063E571E08EE5A4
:100B100092E00E94CF002BE2822E912C33E1E32E53
:100B2000F12C44244A94542C320150E0A52E50E07C
:100B3000B52E10925602109257021092580210923F
:100B4000590210925A0210925B0210925C021092AB
:100B50005D0261E080918A010E940502C401019753
:100B6000F1F760E080918A010E940502C7010197B8
:100B7000F1F702E811E09EE8C92E91E0D92EE801D4
:100B8000F601219131916F0137FD23C03327F9011F
:100B9000E255FF4F8491F901E656FF4F2490F90189
:100BA000EA57FF4F3490332009F4C8C081110E94E6
:100BB000DC01E32DF0E0EE0FFF1FE458FF4FA5919D
:100BC000B491EC912E2209F4B9C04C8A5D8A6E8AE8
:100BD0007F8AE096F6E9CF16F1E0DF0689F660E05D
:100BE00080918C010E940502C7010197F1F761E035
:100BF00080918C010E940502C7010197F1F70C5FFB
:100C00001F4F81E0023B180709F0B5CF8BE090E061
:100C10000E94A802C82F83E090E00E94A802CC2383
:100C200009F498C0882391F082E090E00E94A80225
:100C3000882361F080918101811108C08091800139
:100C400091E0892780938001909381018AE090E070
:100C50000E94A802D82F83E090E00E94A802C82F2B
:100C6000DD2389F08BE090E00E94A802882359F0F0
:100C7000CC2349F084E090E00E94A802882309F484
:100C800074C010927F0183E090E00E94A8028093DC
:100C90005B0282E090E00E94A80280935A0288E002
:100CA00090E00E94A8028093560290E080E00E94AB
:100CB000A8028093570289E090E00E94A8028093E6
:100CC000580281E090E00E94A802809359028AE0D5
:100CD00090E00E94A80280935C028BE090E00E946A
:100CE000A80280935D0280918001882309F45CC092
:100CF00086E090E00E94A802C82F87E090E00E9462
:100D0000A802CC2309F41FC10AE2811100E884E0A3
:100D100090E00E94A802C82F85E090E00E94A802FF
:100D2000CC2309F414C196ED10E0D0E0882321F023
:100D300090E810E0D0E080E0C0E04BC08C899D8955
:100D4000AE89BF890196A11DB11D8C8B9D8BAE8B89
:100D5000BF8B3FCF81117ACF82E090E00E94A80242
:100D6000811174CF1092810171CF85E090E00E94D3
:100D7000A802882321F081E080937F0184CF86E060
:100D800090E00E94A802882321F0E2E0E0937F0136
:100D90007ACF87E090E00E94A802882309F473CFFD
:100DA000F3E0F0937F016FCF84E090E00E94A8020F
:100DB000182F85E090E00E94A802D82F86E090E0EE
:100DC0000E94A802C82F87E090E00E94A80290E845
:100DD00000E820917F0130E0F901E558FE4FE08105
:100DE000F0E0EA5AFD4F4081A0E04111A6EDF90183
:100DF000E958FE4FE081F0E0EA5AFD4F5081B0E043
:100E00005111B6EDF901ED58FE4FE081F0E0EA5ADC
:100E1000FD4F60910D01708170FB60F9F901E1599E
:100E2000FE4FE081F0E0EA5AFD4F708170FB61F9FE
:100E3000F901E559FE4FE081F0E0EA5AFD4F70817B
:100E400070FB62F9F901E959FE4FE081F0E0EA5ADE
:100E5000FD4F708170FB63F9F901ED59FE4FE081A0
:100E6000F0E0EA5AFD4F70910E01E081E0FB74F969
:100E7000215A3E4FF9012081E22FF0E0EA5AFD4F5E
:100E8000208120FB64F960930D0140FB75F950FB54
:100E900076F9A0931401B093130100930F0190937E
:100EA0001001C0FB70F980FB71F9D0FB72F910FBE7
:100EB00073F970930E0165FD2CC0CFB7F8942DE047
:100EC00031E043E051E060E071E08091FB020E947C
:100ED000CC02813051F42DE031E043E051E060E09C
:100EE00071E08091FB020E94CC02823051F42DE02F
:100EF00031E043E051E060E071E08091FB020E944C
:100F0000CC02CFBF8330B1F480910201877F809300
:100F10000201609180018DE00E940502A114B104DC
:100F200009F407CE0E943901882309F402CE0E94F9
:100F30000000FFCD843021F4809102018860E7CF6A
:100F4000853039F7E1CF06ED8111E1CEDFCE9AE2AF
:100F50008111EFCEEDCEEE0FFF1F0590F491E02D45
:100F60000994F894FFCF0900030080808080801FDF
:100F70001F00000080808080801F1F010008000289
:100F80000003000400050006000700000008000838
:100F9000000800000000006F01CF00FC00BC012D24
:100FA000010B011F01416C6C657320696E697469E6
:0C0FB000616C697369657274000D0A00C1
:107E000085E08093810082E08093C00088E18093C8
:107E1000C10086E08093C20080E18093C40084B7F3
:107E200014BE81FFD0D089E2C8D0259A86E020E335
:107E30003CEF91E0309385002093840096BBB09B8B
:107E4000FECF1D9AA8958150A9F7DD24D394A5E013
:107E5000EA2EF1E1FF2EA4D0813421F481E0BED0DE
:107E600083E024C0823411F484E103C0853419F422
:107E700085E0B4D08AC08535A1F492D0082F10E0F7
:107E800010930102009300028BD090E0982F882776
:107E9000802B912B880F991F9093010280930002F1
:107EA00073C0863529F484E099D080E071D06DC02C
:107EB000843609F043C07CD0E0910002F0910102C9
:107EC00083E080935700E895C0E0D1E069D08993C2
:107ED000809102028150809302028823B9F778D002
:107EE00007B600FCFDCF4091000250910102A0E0D6
:107EF000B1E02C9130E011968C91119790E0982F81
:107F00008827822B932B1296FA010C01D0925700EE
:107F1000E89511244E5F5F4FF1E0A038BF0749F7A5
:107F2000E0910002F0910102E0925700E89507B657
:107F300000FCFDCFF0925700E89527C08437B9F4D4
:107F400037D046D0E0910002F09101023196F093D3
:107F50000102E09300023197E4918E2F19D08091B5
:107F60000202815080930202882361F70EC0853798
:107F700039F42ED08EE10CD085E90AD08FE096CF6F
:107F8000813511F488E019D023D080E101D063CF8E
:107F9000982F8091C00085FFFCCF9093C600089574
:107FA000A8958091C00087FFFCCF8091C6000895FE
:107FB000F7DFF6DF80930202F3CFE0E6F0E098E12E
:107FC00090838083089580E0F8DFEE27FF270994EF
:107FD000E7DF803209F0F7DF84E1DACF1F93182F53
:0C7FE000DFDF1150E9F7F4DF1F91089576
:00000001FF
