:020000040000FA
:100000000C9462000C948A000C948A000C948A0070
:100010000C948A000C948A000C948A000C948A0038
:100020000C948A000C948A000C948A000C948A0028
:100030000C948A000C948A000C948A000C948A0018
:100040000C9415040C948A000C94E3030C94BD03E7
:100050000C948A000C948A000C948A000C948A00F8
:100060000C948A000C948A000000000024002700F1
:100070002A0000000000250028002B0000000000DE
:1000800023002600290004040404040404040202DA
:100090000202020203030303030301020408102007
:1000A0004080010204081020010204081020000012
:1000B0000008000201000003040700000000000027
:1000C00000005F0411241FBECFEFD8E0DEBFCDBF1C
:1000D00011E0A0E0B1E0E2E3FEE002C005900D9285
:1000E000A034B107D9F722E0A0E4B1E001C01D922D
:1000F000A53CB207E1F710E0C2E6D0E004C02197CA
:10010000FE010E941107C136D107C9F70E948F0472
:100110000C9417070C9400000F93CF93DF93FA0110
:10012000DB014C91502F509554235C935081502B00
:100130005083FC0193E0E90148E080E060E050E09A
:100140007881702389F05A95D9F750E0788170232F
:1001500059F05A95D9F750E87881702329F05A95CB
:10016000D9F76A9561F717C077E07A95F1F7000043
:1001700061E0AA0F7881702309F0A1604A9529F403
:10018000A193839548E0981731F050E87881702367
:1001900011F75A95D9F7DF91CF910F910895AF924A
:1001A000BF92CF92DF92EF92FF920F931F93CF9364
:1001B000DF936C017B018B01040F151FEB015E01C6
:1001C000AE18BF08C017D10759F06991D601ED915B
:1001D000FC910190F081E02DC6010995892B79F7FA
:1001E000C501DF91CF911F910F91FF90EF90DF90AC
:1001F000CF90BF90AF900895FC01538D448D252F73
:1002000030E0842F90E0821B930B541710F0CF96B0
:10021000089501970895FC01918D828D981761F0E2
:10022000A28DAE0FBF2FB11D5D968C91928D9F5FF9
:100230009F73928F90E008958FEF9FEF0895FC01D8
:10024000918D828D981731F0828DE80FF11D858D8B
:1002500090E008958FEF9FEF0895FC01918D228D1E
:10026000892F90E0805C9F4F821B91098F739927A3
:10027000089587E292E00E942D0121E0892B09F484
:1002800020E0822F089580E090E0892B29F00E94E1
:10029000390181110C9400000895FC01A48DA80F70
:1002A000B92FB11DA35ABF4F2C91848D90E00196B8
:1002B0008F739927848FA689B7892C93A089B189D8
:1002C0008C91837080648C93938D848D981306C079
:1002D0000288F389E02D80818F7D80830895EF92DD
:1002E000FF920F931F93CF93DF93EC0181E0888FF0
:1002F0009B8D8C8D98131AC0E889F989808185FFC0
:1003000015C09FB7F894EE89FF896083E889F98961
:1003100080818370806480839FBF81E090E0DF9163
:10032000CF911F910F91FF90EF900895F62E0B8DB6
:1003300010E00F5F1F4F0F731127E02E8C8D8E1171
:100340000CC00FB607FCFACFE889F989808185FFD8
:10035000F5CFCE010E944D01F1CFEB8DEC0FFD2FBB
:10036000F11DE35AFF4FF0829FB7F8940B8FEA8993
:10037000FB8980818062CFCFCF93DF93EC01888DA2
:100380008823B9F0AA89BB89E889F9898C9185FD10
:1003900003C0808186FD0DC00FB607FCF7CF8C919E
:1003A00085FFF2CF808185FFEDCFCE010E944D0108
:1003B000E9CFDF91CF910895833081F028F4813027
:1003C00099F08230A9F008958730A9F08830C9F0FB
:1003D0008430B1F4809180008F7D03C080918000D3
:1003E0008F7780938000089584B58F7784BD0895BA
:1003F00084B58F7DFBCF8091B0008F778093B00064
:1004000008958091B0008F7DF9CF1F93CF93DF9334
:10041000282F30E0F901E255FF4F8491F901E656AB
:10042000FF4FD491F901EA57FF4FC491CC23A9F0B3
:10043000162F81110E94DC01EC2FF0E0EE0FFF1F60
:10044000EE58FF4FA591B4918FB7F894EC9111112C
:1004500008C0D095DE23DC938FBFDF91CF911F9131
:100460000895DE2BF8CFCF93DF9390E0FC01E656A2
:10047000FF4F24918A579F4FFC0184918823D1F02C
:1004800090E0880F991FFC01E859FF4FA591B491A6
:10049000FC01EE58FF4FC591D491623071F49FB7C3
:1004A000F8943C91822F809583238C93E8812E2BA6
:1004B00028839FBFDF91CF9108958FB7F894EC9177
:1004C0002E2B2C938FBFF6CF3FB7F8948091450128
:1004D00090914601A0914701B091480126B5A89B93
:1004E00005C02F3F19F00196A11DB11D3FBFBA2FC6
:1004F000A92F982F8827BC01CD01620F711D811D86
:10050000911D42E0660F771F881F991F4A95D1F70A
:1005100008950F931F93F9012081202B2083DA0186
:100520002C91202B2C9320814081202B30E010E057
:100530000095109550E004231523DC015D9148E0FF
:100540000083550F40F474E07A95F1F720837AE048
:100550007A95F1F705C07EE07A95F1F700002083E7
:100560004A9529F073E07A95F1F70000E9CF6A9592
:1005700029F071E07A95F1F70000E0CF72E07A950A
:10058000F1F700000000008374E07A95F1F70000B5
:10059000000020831F910F91089520914B0130910D
:1005A0004C012130310539F0880F991FFC01EB5EB9
:1005B000FE4F80819181880F991F880F991FFC0140
:1005C000E15AFE4F80819181A281B38180959095FF
:1005D000A095B0958827B7FD83959927AA27BB27B3
:1005E00008954F925F926F927F928F929F92AF92F7
:1005F000BF92CF92DF92EF92FF920F931F93CF9310
:10060000DF93CDB7DEB72B970FB6F894DEBF0FBEE2
:10061000CDBF3B014A01790190E0FC01E656FF4F56
:1006200054908A579F4FFC01849190E0880F991F46
:10063000FC01E859FF4FC590D490FC01EE58FF4FE4
:10064000A590B490FC01E458FF4F259134914FB62A
:10065000F894052DA501B601CE0109960E948C00E3
:10066000182F813081F589859FEF980F9E3FF8F014
:100670009501A60163E0C3010E9489024FBE812F4C
:100680002B960FB6F894DEBF0FBECDBFDF91CF9192
:100690001F910F91FF90EF90DF90CF90BF90AF90A0
:1006A0009F908F907F906F905F904F9008958154AE
:1006B000823008F060C09501A6016AE0C4010E9482
:1006C000890212E0DBCF833009F055C08985803480
:1006D00009F051C08A85883008F04DC098E0F701D4
:1006E000DE01119601900D929A95E1F7813069F43F
:1006F000F70184819581907F82958F70892B8D83FE
:1007000086818E8387818F8312C0823021F5F70125
:1007100084819581907F82958F70892B8D838681CE
:100720009781907F82958F70892B8E831F82188688
:10073000052D9501A60168E0CE0101960E9489026F
:100740008B858370813099F0823099F0833009F085
:1007500095CF16E093CF843049F3833049F3F70106
:1007600086819781907F82958F70892BCCCF14E002
:1007700085CF15E083CF10E081CF1F920F920FB687
:100780000F9211242F933F934F935F936F937F9317
:100790008F939F93AF93BF93EF93FF9387E292E082
:1007A0000E944D01FF91EF91BF91AF919F918F9169
:1007B0007F916F915F914F913F912F910F900FBE5D
:1007C0000F901F9018951F920F920FB60F92112441
:1007D0002F938F939F93EF93FF93E0913702F091C4
:1007E00038028081E0913D02F0913E0282FD1BC003
:1007F0009081809140028F5F8F7320914102821718
:1008000041F0E0914002F0E0E95DFD4F958F80936B
:100810004002FF91EF919F918F912F910F900FBE0A
:100820000F901F9018958081F4CF1F920F920FB6F2
:100830000F9211242F933F938F939F93AF93BF9366
:100840008091410190914201A0914301B0914401F6
:100850003091400123E0230F2D3758F50196A11D5B
:10086000B11D209340018093410190934201A093D8
:100870004301B09344018091450190914601A091BC
:100880004701B09148010196A11DB11D809345011A
:1008900090934601A0934701B0934801BF91AF9157
:1008A0009F918F913F912F910F900FBE0F901F90AE
:1008B000189526E8230F0296A11DB11DD2CFE7E2BD
:1008C000F2E01382128288EE93E0A0E0B0E084832D
:1008D0009583A683B78381E391E09183808385EC40
:1008E00090E09587848784EC90E09787868780ECFA
:1008F00090E0918B808B81EC90E0938B828B82ECEB
:1009000090E0958B848B86EC90E0978B868B118E94
:10091000128E138E148E82E08093C4020895789410
:1009200084B5826084BD84B5816084BD85B58260F4
:1009300085BD85B5816085BD80916E0081608093A5
:100940006E0010928100809181008260809381000E
:10095000809181008160809381008091800081601E
:10096000809380008091B10084608093B100809179
:10097000B00081608093B00080917A0084608093A1
:100980007A0080917A00826080937A0080917A0068
:10099000816080937A0080917A00806880937A00E9
:1009A0001092C100E0913702F091380282E080831A
:1009B000E0913302F09134021082E0913502F0911F
:1009C000360280E1808310923F02E0913B02F09179
:1009D0003C0286E08083E0913902F0913A02808106
:1009E00080618083E0913902F0913A0280818860D1
:1009F0008083E0913902F0913A028081806880839F
:100A0000E0913902F0913A0280818F7D808361E02C
:100A10008DE00E9433028BE190E09093540180932B
:100A200053018CE190E0909356018093550161E071
:100A30008BE10E94330260E0809153010E94050225
:100A400061E0809155010E94330261E0809155017F
:100A50000E940502EBE4F1E090E080E0CC24CA942F
:100A6000DC2C76014FEF5FEFDC01A15ABE4F30E086
:100A700020E0CD92DD92ED92FD922F5F3F4F2C3022
:100A80003105B9F71192119253874287C096803C85
:100A9000910551F781E090E090934C0180934B01D8
:100AA0008AE190E0909358018093570162E00E94A0
:100AB000330288248A94982C5401A0E02A2EA0E0C6
:100AC0003A2E10921F0210922002109221021092D0
:100AD00022021092230210922402109225021092F8
:100AE000260261E0809153010E9405028BE290E0B2
:100AF0000197F1F760E0809153010E94050283E1C4
:100B000090E00197F1F70BE411E0E7E5CE2EE1E08C
:100B1000DE2EE801F601219131916F0137FD23C0EE
:100B20003327F901E255FF4F8491F901E656FF4F53
:100B30006490F901EA57FF4F7490772009F4B6C02A
:100B400081110E94DC01E72DF0E0EE0FFF1FE45859
:100B5000FF4FA591B491EC916E2209F4A7C08C8A45
:100B60009D8AAE8ABF8AE096FFE5CF16F1E0DF06E8
:100B700089F660E0809155010E94050283E190E0D2
:100B80000197F1F761E0809155010E94050283E130
:100B900090E00197F1F70C5F1F4F8BE791E0801712
:100BA000910709F0B2CF8AE090E00E94CD0288233D
:100BB00009F488C08BE090E00E94CD02882309F4FC
:100BC00081C083E090E00E94CD02882309F47AC0BE
:100BD00082E090E00E94CD02882309F473C08091E6
:100BE0004A0181116FC08091490191E0892780936A
:100BF000490190934A0183E090E00E94CD028093E6
:100C0000240282E090E00E94CD028093230288E0DB
:100C100090E00E94CD02C82F80931F0290E080E0F8
:100C20000E94CD028093200289E090E00E94CD02D4
:100C30008093210281E090E00E94CD028093220205
:100C40008AE090E00E94CD02809325028BE090E044
:100C50000E94CD0280932602809149018823A9F148
:100C600086E090E00E94CD02D82F87E090E00E94BD
:100C7000CD02DD2309F4CBC066EDD62E882311F01A
:100C800050E8D52E84E090E00E94CD02D82F85E078
:100C900090E00E94CD02DD2309F4BFC036ED811142
:100CA00030E8D0E010E020E000E026C08C899D898B
:100CB000AE89BF890196A11DB11D8C8B9D8BAE8B1A
:100CC000BF8B51CF10924A0196CF84E090E00E94F2
:100CD000CD02D82F85E090E00E94CD02182F86E04B
:100CE00090E00E94CD02082F87E090E00E94CD02A4
:100CF000282F30E840E8D42E90910D01C0FB90F9E8
:100D0000C0FB91F9C0FB92F9C0FB93F980910E01F1
:100D1000C0FB84F9C0FB94F990930D01C0FB85F9E9
:100D2000C0FB86F9D0920F013093100100FB80F9CF
:100D300020FB81F910FB82F9D0FB83F980930E012F
:100D400095FD2CC0CFB7F8942DE031E043E051E0A1
:100D500060E071E08091C4020E94F102813051F4A0
:100D60002DE031E043E051E060E071E08091C402A9
:100D70000E94F102823051F42DE031E043E051E075
:100D800060E071E08091C4020E94F102CFBF833025
:100D9000A9F580910201877F809302010E9464027D
:100DA0006B017C0195E0492E512C612C712C0E9425
:100DB00064026C197D098E099F09683E73408105A4
:100DC0009105A8F391E0491A510861087108E8EE0D
:100DD000CE0EE3E0DE1EE11CF11C4114510461045F
:100DE000710429F72114310409F46BCE0E943901F2
:100DF000882309F466CE0E94000063CE843021F47B
:100E0000809102018860C8CF853041F6C2CF882327
:100E100009F436CF8AE2D82E35CF3AE2811141CF9C
:100E20003FCFEE0FFF1F0590F491E02D0994F89449
:100E3000FFCF0900030080808080801F1F0000001A
:100E400080808080801F1F010008000200030004D2
:100E50000005000600070000000800080008000068
:100E60000000006F01CF00FC00BC012D010B011F31
:020E700001007F
:107E000085E08093810082E08093C00088E18093C8
:107E1000C10086E08093C20080E18093C40084B7F3
:107E200014BE81FFD0D089E2C8D0259A86E020E335
:107E30003CEF91E0309385002093840096BBB09B8B
:107E4000FECF1D9AA8958150A9F7DD24D394A5E013
:107E5000EA2EF1E1FF2EA4D0813421F481E0BED0DE
:107E600083E024C0823411F484E103C0853419F422
:107E700085E0B4D08AC08535A1F492D0082F10E0F7
:107E800010930102009300028BD090E0982F882776
:107E9000802B912B880F991F9093010280930002F1
:107EA00073C0863529F484E099D080E071D06DC02C
:107EB000843609F043C07CD0E0910002F0910102C9
:107EC00083E080935700E895C0E0D1E069D08993C2
:107ED000809102028150809302028823B9F778D002
:107EE00007B600FCFDCF4091000250910102A0E0D6
:107EF000B1E02C9130E011968C91119790E0982F81
:107F00008827822B932B1296FA010C01D0925700EE
:107F1000E89511244E5F5F4FF1E0A038BF0749F7A5
:107F2000E0910002F0910102E0925700E89507B657
:107F300000FCFDCFF0925700E89527C08437B9F4D4
:107F400037D046D0E0910002F09101023196F093D3
:107F50000102E09300023197E4918E2F19D08091B5
:107F60000202815080930202882361F70EC0853798
:107F700039F42ED08EE10CD085E90AD08FE096CF6F
:107F8000813511F488E019D023D080E101D063CF8E
:107F9000982F8091C00085FFFCCF9093C600089574
:107FA000A8958091C00087FFFCCF8091C6000895FE
:107FB000F7DFF6DF80930202F3CFE0E6F0E098E12E
:107FC00090838083089580E0F8DFEE27FF270994EF
:107FD000E7DF803209F0F7DF84E1DACF1F93182F53
:0C7FE000DFDF1150E9F7F4DF1F91089576
:00000001FF
